{
  "contractName": "Lottery",
  "abi": [
    {
      "inputs": [],
      "stateMutability": "nonpayable",
      "type": "constructor"
    },
    {
      "inputs": [],
      "name": "lastWinner",
      "outputs": [
        {
          "internalType": "address",
          "name": "",
          "type": "address"
        }
      ],
      "stateMutability": "view",
      "type": "function",
      "constant": true
    },
    {
      "inputs": [],
      "name": "manager",
      "outputs": [
        {
          "internalType": "address",
          "name": "",
          "type": "address"
        }
      ],
      "stateMutability": "view",
      "type": "function",
      "constant": true
    },
    {
      "inputs": [
        {
          "internalType": "uint256",
          "name": "",
          "type": "uint256"
        }
      ],
      "name": "players",
      "outputs": [
        {
          "internalType": "address",
          "name": "",
          "type": "address"
        }
      ],
      "stateMutability": "view",
      "type": "function",
      "constant": true
    },
    {
      "inputs": [],
      "name": "enter",
      "outputs": [],
      "stateMutability": "payable",
      "type": "function",
      "payable": true
    },
    {
      "inputs": [],
      "name": "pickWinner",
      "outputs": [],
      "stateMutability": "nonpayable",
      "type": "function"
    },
    {
      "inputs": [],
      "name": "getPlayers",
      "outputs": [
        {
          "internalType": "address[]",
          "name": "",
          "type": "address[]"
        }
      ],
      "stateMutability": "view",
      "type": "function",
      "constant": true
    },
    {
      "inputs": [],
      "name": "getLastWinner",
      "outputs": [
        {
          "internalType": "address",
          "name": "",
          "type": "address"
        }
      ],
      "stateMutability": "view",
      "type": "function",
      "constant": true
    }
  ],
  "bytecode": "0x608060405234801561000f575f80fd5b50335f806101000a81548173ffffffffffffffffffffffffffffffffffffffff021916908373ffffffffffffffffffffffffffffffffffffffff160217905550610aaa8061005c5f395ff3fe60806040526004361061006f575f3560e01c8063e97dcb621161004d578063e97dcb62146100dd578063f71d96cb146100e7578063f88649a114610123578063fe1881841461014d5761006f565b8063481c6a75146100735780635d495aea1461009d5780638b5b9ccc146100b3575b5f80fd5b34801561007e575f80fd5b50610087610177565b6040516100949190610590565b60405180910390f35b3480156100a8575f80fd5b506100b161019a565b005b3480156100be575f80fd5b506100c7610316565b6040516100d49190610660565b60405180910390f35b6100e56103a1565b005b3480156100f2575f80fd5b5061010d600480360381019061010891906106b7565b61044d565b60405161011a9190610590565b60405180910390f35b34801561012e575f80fd5b50610137610488565b6040516101449190610590565b60405180910390f35b348015610158575f80fd5b506101616104b0565b60405161016e9190610590565b60405180910390f35b5f8054906101000a900473ffffffffffffffffffffffffffffffffffffffff1681565b5f8054906101000a900473ffffffffffffffffffffffffffffffffffffffff1673ffffffffffffffffffffffffffffffffffffffff163373ffffffffffffffffffffffffffffffffffffffff1614610227576040517f08c379a000000000000000000000000000000000000000000000000000000000815260040161021e90610762565b60405180910390fd5b5f6001805490506102366104d5565b61024091906107ad565b90505f60018281548110610257576102566107dd565b5b905f5260205f20015f9054906101000a900473ffffffffffffffffffffffffffffffffffffffff1690508073ffffffffffffffffffffffffffffffffffffffff166108fc4790811502906040515f60405180830381858888f193505050501580156102c4573d5f803e3d5ffd5b508060025f6101000a81548173ffffffffffffffffffffffffffffffffffffffff021916908373ffffffffffffffffffffffffffffffffffffffff16021790555060015f6103129190610518565b5050565b6060600180548060200260200160405190810160405280929190818152602001828054801561039757602002820191905f5260205f20905b815f9054906101000a900473ffffffffffffffffffffffffffffffffffffffff1673ffffffffffffffffffffffffffffffffffffffff168152602001906001019080831161034e575b5050505050905090565b662386f26fc100003410156103eb576040517f08c379a00000000000000000000000000000000000000000000000000000000081526004016103e290610854565b60405180910390fd5b600133908060018154018082558091505060019003905f5260205f20015f9091909190916101000a81548173ffffffffffffffffffffffffffffffffffffffff021916908373ffffffffffffffffffffffffffffffffffffffff160217905550565b6001818154811061045c575f80fd5b905f5260205f20015f915054906101000a900473ffffffffffffffffffffffffffffffffffffffff1681565b5f60025f9054906101000a900473ffffffffffffffffffffffffffffffffffffffff16905090565b60025f9054906101000a900473ffffffffffffffffffffffffffffffffffffffff1681565b5f6001436104e3919061089f565b40444260016040516020016104fb9493929190610a2b565b604051602081830303815290604052805190602001205f1c905090565b5080545f8255905f5260205f20908101906105339190610536565b50565b5b8082111561054d575f815f905550600101610537565b5090565b5f73ffffffffffffffffffffffffffffffffffffffff82169050919050565b5f61057a82610551565b9050919050565b61058a81610570565b82525050565b5f6020820190506105a35f830184610581565b92915050565b5f81519050919050565b5f82825260208201905092915050565b5f819050602082019050919050565b6105db81610570565b82525050565b5f6105ec83836105d2565b60208301905092915050565b5f602082019050919050565b5f61060e826105a9565b61061881856105b3565b9350610623836105c3565b805f5b8381101561065357815161063a88826105e1565b9750610645836105f8565b925050600181019050610626565b5085935050505092915050565b5f6020820190508181035f8301526106788184610604565b905092915050565b5f80fd5b5f819050919050565b61069681610684565b81146106a0575f80fd5b50565b5f813590506106b18161068d565b92915050565b5f602082840312156106cc576106cb610680565b5b5f6106d9848285016106a3565b91505092915050565b5f82825260208201905092915050565b7f4f6e6c79206d616e616765722063616e2063616c6c20746869732066756e63745f8201527f696f6e0000000000000000000000000000000000000000000000000000000000602082015250565b5f61074c6023836106e2565b9150610757826106f2565b604082019050919050565b5f6020820190508181035f83015261077981610740565b9050919050565b7f4e487b71000000000000000000000000000000000000000000000000000000005f52601260045260245ffd5b5f6107b782610684565b91506107c283610684565b9250826107d2576107d1610780565b5b828206905092915050565b7f4e487b71000000000000000000000000000000000000000000000000000000005f52603260045260245ffd5b7f4d696e696d756d20455448206e6f74206d6574000000000000000000000000005f82015250565b5f61083e6013836106e2565b91506108498261080a565b602082019050919050565b5f6020820190508181035f83015261086b81610832565b9050919050565b7f4e487b71000000000000000000000000000000000000000000000000000000005f52601160045260245ffd5b5f6108a982610684565b91506108b483610684565b92508282039050818111156108cc576108cb610872565b5b92915050565b5f819050919050565b5f819050919050565b6108f56108f0826108d2565b6108db565b82525050565b5f819050919050565b61091561091082610684565b6108fb565b82525050565b5f81549050919050565b5f81905092915050565b5f819050815f5260205f209050919050565b61094a81610570565b82525050565b5f61095b8383610941565b60208301905092915050565b5f815f1c9050919050565b5f73ffffffffffffffffffffffffffffffffffffffff82169050919050565b5f6109a361099e83610967565b610972565b9050919050565b5f6109b58254610991565b9050919050565b5f600182019050919050565b5f6109d28261091b565b6109dc8185610925565b93506109e78361092f565b805f5b83811015610a1e576109fb826109aa565b610a058882610950565b9750610a10836109bc565b9250506001810190506109ea565b5085935050505092915050565b5f610a3682876108e4565b602082019150610a468286610904565b602082019150610a568285610904565b602082019150610a6682846109c8565b91508190509594505050505056fea264697066735822122053972e315c475b0f87f93c29711d157b8562bb805c49e2dca8e9a98df241708964736f6c63430008140033",
  "immutableReferences": {},
  "source": "// SPDX-License-Identifier: MIT\r\npragma solidity ^0.8.20;\r\n\r\ncontract Lottery {\r\n    address public manager;\r\n    address[] public players;\r\n    address public lastWinner;\r\n\r\n    constructor() {\r\n        manager = msg.sender;\r\n    }\r\n\r\n    function enter() public payable {\r\n        require(msg.value >= 0.01 ether, \"Minimum ETH not met\");\r\n        players.push(msg.sender);\r\n    }\r\n\r\n    function random() private view returns (uint) {\r\n        return uint(keccak256(abi.encodePacked(blockhash(block.number - 1), block.prevrandao, block.timestamp, players)));\r\n    }\r\n\r\n    function pickWinner() public restricted {\r\n        uint index = random() % players.length;\r\n        address winner = players[index];\r\n        payable(winner).transfer(address(this).balance);\r\n        lastWinner = winner;\r\n        delete players;\r\n    }\r\n\r\n    modifier restricted() {\r\n        require(msg.sender == manager, \"Only manager can call this function\");\r\n        _;\r\n    }\r\n\r\n    function getPlayers() public view returns (address[] memory) {\r\n        return players;\r\n    }\r\n\r\n    function getLastWinner() public view returns (address) {\r\n        return lastWinner;\r\n    }\r\n}\r\n",
  "sourcePath": "D:\\chromDownload\\react\\dapp_game\\contracts\\Lottery.sol",
  "compiler": {
    "name": "solc",
    "version": "0.8.20+commit.a1b79de6.Emscripten.clang"
  },
  "schemaVersion": "3.4.13",
  "updatedAt": "2024-07-11T03:10:38.358Z",
  "networkType": "ethereum",
  "devdoc": {
    "kind": "dev",
    "methods": {},
    "version": 1
  },
  "userdoc": {
    "kind": "user",
    "methods": {},
    "version": 1
  }
}